{
  "contractName": "MyToken",
  "abi": [
    {
      "inputs": [],
      "stateMutability": "nonpayable",
      "type": "constructor"
    },
    {
      "anonymous": false,
      "inputs": [
        {
          "indexed": true,
          "internalType": "address",
          "name": "owner",
          "type": "address"
        },
        {
          "indexed": true,
          "internalType": "address",
          "name": "spender",
          "type": "address"
        },
        {
          "indexed": false,
          "internalType": "uint256",
          "name": "value",
          "type": "uint256"
        }
      ],
      "name": "Approval",
      "type": "event"
    },
    {
      "anonymous": false,
      "inputs": [
        {
          "indexed": true,
          "internalType": "address",
          "name": "previousOwner",
          "type": "address"
        },
        {
          "indexed": true,
          "internalType": "address",
          "name": "newOwner",
          "type": "address"
        }
      ],
      "name": "OwnershipTransferred",
      "type": "event"
    },
    {
      "anonymous": false,
      "inputs": [
        {
          "indexed": true,
          "internalType": "address",
          "name": "from",
          "type": "address"
        },
        {
          "indexed": true,
          "internalType": "address",
          "name": "to",
          "type": "address"
        },
        {
          "indexed": false,
          "internalType": "uint256",
          "name": "value",
          "type": "uint256"
        }
      ],
      "name": "Transfer",
      "type": "event"
    },
    {
      "inputs": [],
      "name": "_owner",
      "outputs": [
        {
          "internalType": "address",
          "name": "",
          "type": "address"
        }
      ],
      "stateMutability": "view",
      "type": "function",
      "constant": true
    },
    {
      "inputs": [
        {
          "internalType": "address",
          "name": "owner",
          "type": "address"
        },
        {
          "internalType": "address",
          "name": "spender",
          "type": "address"
        }
      ],
      "name": "allowance",
      "outputs": [
        {
          "internalType": "uint256",
          "name": "",
          "type": "uint256"
        }
      ],
      "stateMutability": "view",
      "type": "function",
      "constant": true
    },
    {
      "inputs": [
        {
          "internalType": "address",
          "name": "spender",
          "type": "address"
        },
        {
          "internalType": "uint256",
          "name": "amount",
          "type": "uint256"
        }
      ],
      "name": "approve",
      "outputs": [
        {
          "internalType": "bool",
          "name": "",
          "type": "bool"
        }
      ],
      "stateMutability": "nonpayable",
      "type": "function"
    },
    {
      "inputs": [
        {
          "internalType": "address",
          "name": "account",
          "type": "address"
        }
      ],
      "name": "balanceOf",
      "outputs": [
        {
          "internalType": "uint256",
          "name": "",
          "type": "uint256"
        }
      ],
      "stateMutability": "view",
      "type": "function",
      "constant": true
    },
    {
      "inputs": [],
      "name": "decimals",
      "outputs": [
        {
          "internalType": "uint8",
          "name": "",
          "type": "uint8"
        }
      ],
      "stateMutability": "view",
      "type": "function",
      "constant": true
    },
    {
      "inputs": [
        {
          "internalType": "address",
          "name": "spender",
          "type": "address"
        },
        {
          "internalType": "uint256",
          "name": "subtractedValue",
          "type": "uint256"
        }
      ],
      "name": "decreaseAllowance",
      "outputs": [
        {
          "internalType": "bool",
          "name": "",
          "type": "bool"
        }
      ],
      "stateMutability": "nonpayable",
      "type": "function"
    },
    {
      "inputs": [
        {
          "internalType": "address",
          "name": "spender",
          "type": "address"
        },
        {
          "internalType": "uint256",
          "name": "addedValue",
          "type": "uint256"
        }
      ],
      "name": "increaseAllowance",
      "outputs": [
        {
          "internalType": "bool",
          "name": "",
          "type": "bool"
        }
      ],
      "stateMutability": "nonpayable",
      "type": "function"
    },
    {
      "inputs": [],
      "name": "name",
      "outputs": [
        {
          "internalType": "string",
          "name": "",
          "type": "string"
        }
      ],
      "stateMutability": "view",
      "type": "function",
      "constant": true
    },
    {
      "inputs": [],
      "name": "owner",
      "outputs": [
        {
          "internalType": "address",
          "name": "",
          "type": "address"
        }
      ],
      "stateMutability": "view",
      "type": "function",
      "constant": true
    },
    {
      "inputs": [],
      "name": "renounceOwnership",
      "outputs": [],
      "stateMutability": "nonpayable",
      "type": "function"
    },
    {
      "inputs": [],
      "name": "symbol",
      "outputs": [
        {
          "internalType": "string",
          "name": "",
          "type": "string"
        }
      ],
      "stateMutability": "view",
      "type": "function",
      "constant": true
    },
    {
      "inputs": [],
      "name": "totalSupply",
      "outputs": [
        {
          "internalType": "uint256",
          "name": "",
          "type": "uint256"
        }
      ],
      "stateMutability": "view",
      "type": "function",
      "constant": true
    },
    {
      "inputs": [
        {
          "internalType": "address",
          "name": "to",
          "type": "address"
        },
        {
          "internalType": "uint256",
          "name": "amount",
          "type": "uint256"
        }
      ],
      "name": "transfer",
      "outputs": [
        {
          "internalType": "bool",
          "name": "",
          "type": "bool"
        }
      ],
      "stateMutability": "nonpayable",
      "type": "function"
    },
    {
      "inputs": [
        {
          "internalType": "address",
          "name": "from",
          "type": "address"
        },
        {
          "internalType": "address",
          "name": "to",
          "type": "address"
        },
        {
          "internalType": "uint256",
          "name": "amount",
          "type": "uint256"
        }
      ],
      "name": "transferFrom",
      "outputs": [
        {
          "internalType": "bool",
          "name": "",
          "type": "bool"
        }
      ],
      "stateMutability": "nonpayable",
      "type": "function"
    },
    {
      "inputs": [
        {
          "internalType": "address",
          "name": "newOwner",
          "type": "address"
        }
      ],
      "name": "transferOwnership",
      "outputs": [],
      "stateMutability": "nonpayable",
      "type": "function"
    },
    {
      "inputs": [
        {
          "internalType": "uint256",
          "name": "amount",
          "type": "uint256"
        }
      ],
      "name": "mintToken",
      "outputs": [],
      "stateMutability": "nonpayable",
      "type": "function"
    }
  ],
  "bytecode": "0x60806040523480156200001157600080fd5b506040518060400160405280600781526020017f4d79546f6b656e000000000000000000000000000000000000000000000000008152506040518060400160405280600381526020017f4d544b00000000000000000000000000000000000000000000000000000000008152508160039080519060200190620000969291906200033e565b508060049080519060200190620000af9291906200033e565b505050620000d2620000c6620000ed60201b60201c565b620000f560201b60201c565b620000e733620f4240620001bb60201b60201c565b6200059a565b600033905090565b6000600560009054906101000a900473ffffffffffffffffffffffffffffffffffffffff16905081600560006101000a81548173ffffffffffffffffffffffffffffffffffffffff021916908373ffffffffffffffffffffffffffffffffffffffff1602179055508173ffffffffffffffffffffffffffffffffffffffff168173ffffffffffffffffffffffffffffffffffffffff167f8be0079c531659141344cd1fd0a4f28419497f9722a3daafe3b4186f6b6457e060405160405180910390a35050565b600073ffffffffffffffffffffffffffffffffffffffff168273ffffffffffffffffffffffffffffffffffffffff1614156200022e576040517f08c379a0000000000000000000000000000000000000000000000000000000008152600401620002259062000426565b60405180910390fd5b62000242600083836200033460201b60201c565b806002600082825462000256919062000476565b92505081905550806000808473ffffffffffffffffffffffffffffffffffffffff1673ffffffffffffffffffffffffffffffffffffffff1681526020019081526020016000206000828254620002ad919062000476565b925050819055508173ffffffffffffffffffffffffffffffffffffffff16600073ffffffffffffffffffffffffffffffffffffffff167fddf252ad1be2c89b69c2b068fc378daa952ba7f163c4a11628f55a4df523b3ef8360405162000314919062000448565b60405180910390a362000330600083836200033960201b60201c565b5050565b505050565b505050565b8280546200034c90620004dd565b90600052602060002090601f016020900481019282620003705760008555620003bc565b82601f106200038b57805160ff1916838001178555620003bc565b82800160010185558215620003bc579182015b82811115620003bb5782518255916020019190600101906200039e565b5b509050620003cb9190620003cf565b5090565b5b80821115620003ea576000816000905550600101620003d0565b5090565b6000620003fd601f8362000465565b91506200040a8262000571565b602082019050919050565b6200042081620004d3565b82525050565b600060208201905081810360008301526200044181620003ee565b9050919050565b60006020820190506200045f600083018462000415565b92915050565b600082825260208201905092915050565b60006200048382620004d3565b91506200049083620004d3565b9250827fffffffffffffffffffffffffffffffffffffffffffffffffffffffffffffffff03821115620004c857620004c762000513565b5b828201905092915050565b6000819050919050565b60006002820490506001821680620004f657607f821691505b602082108114156200050d576200050c62000542565b5b50919050565b7f4e487b7100000000000000000000000000000000000000000000000000000000600052601160045260246000fd5b7f4e487b7100000000000000000000000000000000000000000000000000000000600052602260045260246000fd5b7f45524332303a206d696e7420746f20746865207a65726f206164647265737300600082015250565b611a4a80620005aa6000396000f3fe608060405234801561001057600080fd5b50600436106101005760003560e01c80638da5cb5b11610097578063b2bdfa7b11610066578063b2bdfa7b146102c5578063c634d032146102e3578063dd62ed3e146102ff578063f2fde38b1461032f57610100565b80638da5cb5b1461022957806395d89b4114610247578063a457c2d714610265578063a9059cbb1461029557610100565b8063313ce567116100d3578063313ce567146101a157806339509351146101bf57806370a08231146101ef578063715018a61461021f57610100565b806306fdde0314610105578063095ea7b31461012357806318160ddd1461015357806323b872dd14610171575b600080fd5b61010d61034b565b60405161011a919061140f565b60405180910390f35b61013d600480360381019061013891906111a1565b6103dd565b60405161014a91906113f4565b60405180910390f35b61015b610400565b6040516101689190611571565b60405180910390f35b61018b60048036038101906101869190611152565b61040a565b60405161019891906113f4565b60405180910390f35b6101a9610439565b6040516101b6919061158c565b60405180910390f35b6101d960048036038101906101d491906111a1565b610442565b6040516101e691906113f4565b60405180910390f35b610209600480360381019061020491906110ed565b6104ec565b6040516102169190611571565b60405180910390f35b610227610534565b005b6102316105bc565b60405161023e91906113d9565b60405180910390f35b61024f6105e6565b60405161025c919061140f565b60405180910390f35b61027f600480360381019061027a91906111a1565b610678565b60405161028c91906113f4565b60405180910390f35b6102af60048036038101906102aa91906111a1565b610762565b6040516102bc91906113f4565b60405180910390f35b6102cd610785565b6040516102da91906113d9565b60405180910390f35b6102fd60048036038101906102f891906111dd565b6107ab565b005b61031960048036038101906103149190611116565b610834565b6040516103269190611571565b60405180910390f35b610349600480360381019061034491906110ed565b6108bb565b005b60606003805461035a906116a1565b80601f0160208091040260200160405190810160405280929190818152602001828054610386906116a1565b80156103d35780601f106103a8576101008083540402835291602001916103d3565b820191906000526020600020905b8154815290600101906020018083116103b657829003601f168201915b5050505050905090565b6000806103e86109b3565b90506103f58185856109bb565b600191505092915050565b6000600254905090565b6000806104156109b3565b9050610422858285610b86565b61042d858585610c12565b60019150509392505050565b60006012905090565b60008061044d6109b3565b90506104e1818585600160008673ffffffffffffffffffffffffffffffffffffffff1673ffffffffffffffffffffffffffffffffffffffff16815260200190815260200160002060008973ffffffffffffffffffffffffffffffffffffffff1673ffffffffffffffffffffffffffffffffffffffff168152602001908152602001600020546104dc91906115c3565b6109bb565b600191505092915050565b60008060008373ffffffffffffffffffffffffffffffffffffffff1673ffffffffffffffffffffffffffffffffffffffff168152602001908152602001600020549050919050565b61053c6109b3565b73ffffffffffffffffffffffffffffffffffffffff1661055a6105bc565b73ffffffffffffffffffffffffffffffffffffffff16146105b0576040517f08c379a00000000000000000000000000000000000000000000000000000000081526004016105a7906114d1565b60405180910390fd5b6105ba6000610e93565b565b6000600560009054906101000a900473ffffffffffffffffffffffffffffffffffffffff16905090565b6060600480546105f5906116a1565b80601f0160208091040260200160405190810160405280929190818152602001828054610621906116a1565b801561066e5780601f106106435761010080835404028352916020019161066e565b820191906000526020600020905b81548152906001019060200180831161065157829003601f168201915b5050505050905090565b6000806106836109b3565b90506000600160008373ffffffffffffffffffffffffffffffffffffffff1673ffffffffffffffffffffffffffffffffffffffff16815260200190815260200160002060008673ffffffffffffffffffffffffffffffffffffffff1673ffffffffffffffffffffffffffffffffffffffff16815260200190815260200160002054905083811015610749576040517f08c379a000000000000000000000000000000000000000000000000000000000815260040161074090611531565b60405180910390fd5b61075682868684036109bb565b60019250505092915050565b60008061076d6109b3565b905061077a818585610c12565b600191505092915050565b600560009054906101000a900473ffffffffffffffffffffffffffffffffffffffff1681565b6107b36109b3565b73ffffffffffffffffffffffffffffffffffffffff166107d16105bc565b73ffffffffffffffffffffffffffffffffffffffff1614610827576040517f08c379a000000000000000000000000000000000000000000000000000000000815260040161081e906114d1565b60405180910390fd5b6108313382610f59565b50565b6000600160008473ffffffffffffffffffffffffffffffffffffffff1673ffffffffffffffffffffffffffffffffffffffff16815260200190815260200160002060008373ffffffffffffffffffffffffffffffffffffffff1673ffffffffffffffffffffffffffffffffffffffff16815260200190815260200160002054905092915050565b6108c36109b3565b73ffffffffffffffffffffffffffffffffffffffff166108e16105bc565b73ffffffffffffffffffffffffffffffffffffffff1614610937576040517f08c379a000000000000000000000000000000000000000000000000000000000815260040161092e906114d1565b60405180910390fd5b600073ffffffffffffffffffffffffffffffffffffffff168173ffffffffffffffffffffffffffffffffffffffff1614156109a7576040517f08c379a000000000000000000000000000000000000000000000000000000000815260040161099e90611451565b60405180910390fd5b6109b081610e93565b50565b600033905090565b600073ffffffffffffffffffffffffffffffffffffffff168373ffffffffffffffffffffffffffffffffffffffff161415610a2b576040517f08c379a0000000000000000000000000000000000000000000000000000000008152600401610a2290611511565b60405180910390fd5b600073ffffffffffffffffffffffffffffffffffffffff168273ffffffffffffffffffffffffffffffffffffffff161415610a9b576040517f08c379a0000000000000000000000000000000000000000000000000000000008152600401610a9290611471565b60405180910390fd5b80600160008573ffffffffffffffffffffffffffffffffffffffff1673ffffffffffffffffffffffffffffffffffffffff16815260200190815260200160002060008473ffffffffffffffffffffffffffffffffffffffff1673ffffffffffffffffffffffffffffffffffffffff168152602001908152602001600020819055508173ffffffffffffffffffffffffffffffffffffffff168373ffffffffffffffffffffffffffffffffffffffff167f8c5be1e5ebec7d5bd14f71427d1e84f3dd0314c0f7b2291e5b200ac8c7c3b92583604051610b799190611571565b60405180910390a3505050565b6000610b928484610834565b90507fffffffffffffffffffffffffffffffffffffffffffffffffffffffffffffffff8114610c0c5781811015610bfe576040517f08c379a0000000000000000000000000000000000000000000000000000000008152600401610bf590611491565b60405180910390fd5b610c0b84848484036109bb565b5b50505050565b600073ffffffffffffffffffffffffffffffffffffffff168373ffffffffffffffffffffffffffffffffffffffff161415610c82576040517f08c379a0000000000000000000000000000000000000000000000000000000008152600401610c79906114f1565b60405180910390fd5b600073ffffffffffffffffffffffffffffffffffffffff168273ffffffffffffffffffffffffffffffffffffffff161415610cf2576040517f08c379a0000000000000000000000000000000000000000000000000000000008152600401610ce990611431565b60405180910390fd5b610cfd8383836110b9565b60008060008573ffffffffffffffffffffffffffffffffffffffff1673ffffffffffffffffffffffffffffffffffffffff16815260200190815260200160002054905081811015610d83576040517f08c379a0000000000000000000000000000000000000000000000000000000008152600401610d7a906114b1565b60405180910390fd5b8181036000808673ffffffffffffffffffffffffffffffffffffffff1673ffffffffffffffffffffffffffffffffffffffff16815260200190815260200160002081905550816000808573ffffffffffffffffffffffffffffffffffffffff1673ffffffffffffffffffffffffffffffffffffffff1681526020019081526020016000206000828254610e1691906115c3565b925050819055508273ffffffffffffffffffffffffffffffffffffffff168473ffffffffffffffffffffffffffffffffffffffff167fddf252ad1be2c89b69c2b068fc378daa952ba7f163c4a11628f55a4df523b3ef84604051610e7a9190611571565b60405180910390a3610e8d8484846110be565b50505050565b6000600560009054906101000a900473ffffffffffffffffffffffffffffffffffffffff16905081600560006101000a81548173ffffffffffffffffffffffffffffffffffffffff021916908373ffffffffffffffffffffffffffffffffffffffff1602179055508173ffffffffffffffffffffffffffffffffffffffff168173ffffffffffffffffffffffffffffffffffffffff167f8be0079c531659141344cd1fd0a4f28419497f9722a3daafe3b4186f6b6457e060405160405180910390a35050565b600073ffffffffffffffffffffffffffffffffffffffff168273ffffffffffffffffffffffffffffffffffffffff161415610fc9576040517f08c379a0000000000000000000000000000000000000000000000000000000008152600401610fc090611551565b60405180910390fd5b610fd5600083836110b9565b8060026000828254610fe791906115c3565b92505081905550806000808473ffffffffffffffffffffffffffffffffffffffff1673ffffffffffffffffffffffffffffffffffffffff168152602001908152602001600020600082825461103c91906115c3565b925050819055508173ffffffffffffffffffffffffffffffffffffffff16600073ffffffffffffffffffffffffffffffffffffffff167fddf252ad1be2c89b69c2b068fc378daa952ba7f163c4a11628f55a4df523b3ef836040516110a19190611571565b60405180910390a36110b5600083836110be565b5050565b505050565b505050565b6000813590506110d2816119e6565b92915050565b6000813590506110e7816119fd565b92915050565b6000602082840312156110ff57600080fd5b600061110d848285016110c3565b91505092915050565b6000806040838503121561112957600080fd5b6000611137858286016110c3565b9250506020611148858286016110c3565b9150509250929050565b60008060006060848603121561116757600080fd5b6000611175868287016110c3565b9350506020611186868287016110c3565b9250506040611197868287016110d8565b9150509250925092565b600080604083850312156111b457600080fd5b60006111c2858286016110c3565b92505060206111d3858286016110d8565b9150509250929050565b6000602082840312156111ef57600080fd5b60006111fd848285016110d8565b91505092915050565b61120f81611619565b82525050565b61121e8161162b565b82525050565b600061122f826115a7565b61123981856115b2565b935061124981856020860161166e565b61125281611731565b840191505092915050565b600061126a6023836115b2565b915061127582611742565b604082019050919050565b600061128d6026836115b2565b915061129882611791565b604082019050919050565b60006112b06022836115b2565b91506112bb826117e0565b604082019050919050565b60006112d3601d836115b2565b91506112de8261182f565b602082019050919050565b60006112f66026836115b2565b915061130182611858565b604082019050919050565b60006113196020836115b2565b9150611324826118a7565b602082019050919050565b600061133c6025836115b2565b9150611347826118d0565b604082019050919050565b600061135f6024836115b2565b915061136a8261191f565b604082019050919050565b60006113826025836115b2565b915061138d8261196e565b604082019050919050565b60006113a5601f836115b2565b91506113b0826119bd565b602082019050919050565b6113c481611657565b82525050565b6113d381611661565b82525050565b60006020820190506113ee6000830184611206565b92915050565b60006020820190506114096000830184611215565b92915050565b600060208201905081810360008301526114298184611224565b905092915050565b6000602082019050818103600083015261144a8161125d565b9050919050565b6000602082019050818103600083015261146a81611280565b9050919050565b6000602082019050818103600083015261148a816112a3565b9050919050565b600060208201905081810360008301526114aa816112c6565b9050919050565b600060208201905081810360008301526114ca816112e9565b9050919050565b600060208201905081810360008301526114ea8161130c565b9050919050565b6000602082019050818103600083015261150a8161132f565b9050919050565b6000602082019050818103600083015261152a81611352565b9050919050565b6000602082019050818103600083015261154a81611375565b9050919050565b6000602082019050818103600083015261156a81611398565b9050919050565b600060208201905061158660008301846113bb565b92915050565b60006020820190506115a160008301846113ca565b92915050565b600081519050919050565b600082825260208201905092915050565b60006115ce82611657565b91506115d983611657565b9250827fffffffffffffffffffffffffffffffffffffffffffffffffffffffffffffffff0382111561160e5761160d6116d3565b5b828201905092915050565b600061162482611637565b9050919050565b60008115159050919050565b600073ffffffffffffffffffffffffffffffffffffffff82169050919050565b6000819050919050565b600060ff82169050919050565b60005b8381101561168c578082015181840152602081019050611671565b8381111561169b576000848401525b50505050565b600060028204905060018216806116b957607f821691505b602082108114156116cd576116cc611702565b5b50919050565b7f4e487b7100000000000000000000000000000000000000000000000000000000600052601160045260246000fd5b7f4e487b7100000000000000000000000000000000000000000000000000000000600052602260045260246000fd5b6000601f19601f8301169050919050565b7f45524332303a207472616e7366657220746f20746865207a65726f206164647260008201527f6573730000000000000000000000000000000000000000000000000000000000602082015250565b7f4f776e61626c653a206e6577206f776e657220697320746865207a65726f206160008201527f6464726573730000000000000000000000000000000000000000000000000000602082015250565b7f45524332303a20617070726f766520746f20746865207a65726f20616464726560008201527f7373000000000000000000000000000000000000000000000000000000000000602082015250565b7f45524332303a20696e73756666696369656e7420616c6c6f77616e6365000000600082015250565b7f45524332303a207472616e7366657220616d6f756e742065786365656473206260008201527f616c616e63650000000000000000000000000000000000000000000000000000602082015250565b7f4f776e61626c653a2063616c6c6572206973206e6f7420746865206f776e6572600082015250565b7f45524332303a207472616e736665722066726f6d20746865207a65726f20616460008201527f6472657373000000000000000000000000000000000000000000000000000000602082015250565b7f45524332303a20617070726f76652066726f6d20746865207a65726f2061646460008201527f7265737300000000000000000000000000000000000000000000000000000000602082015250565b7f45524332303a2064656372656173656420616c6c6f77616e63652062656c6f7760008201527f207a65726f000000000000000000000000000000000000000000000000000000602082015250565b7f45524332303a206d696e7420746f20746865207a65726f206164647265737300600082015250565b6119ef81611619565b81146119fa57600080fd5b50565b611a0681611657565b8114611a1157600080fd5b5056fea26469706673582212201a156e3475e6b8791a961d6f3dbfc20694b0a4fa2c90c0d38ec84f03110030c364736f6c63430008030033",
  "immutableReferences": {},
  "source": "// SPDX-License-Identifier: MIT\npragma solidity  >= 0.8.3;\n\nimport '@openzeppelin/contracts/token/ERC20/ERC20.sol';\nimport '@openzeppelin/contracts/access/Ownable.sol';\n\ncontract MyToken is ERC20, Ownable {\n\n  constructor () ERC20(\"MyToken\", \"MTK\") {\n    _mint(msg.sender, 1000000);\n  }\n\n  function mintToken(uint amount) public onlyOwner {\n    _mint(msg.sender, amount);\n  }\n\n}\n",
  "sourcePath": "C:\\Users\\Pavon\\token-project\\contracts\\MyToken.sol",
  "compiler": {
    "name": "solc",
    "version": "0.8.3+commit.8d00100c.Emscripten.clang"
  },
  "schemaVersion": "3.4.4",
  "updatedAt": "2022-03-05T14:20:20.433Z",
  "networkType": "ethereum",
  "devdoc": {
    "kind": "dev",
    "methods": {
      "allowance(address,address)": {
        "details": "See {IERC20-allowance}."
      },
      "approve(address,uint256)": {
        "details": "See {IERC20-approve}. NOTE: If `amount` is the maximum `uint256`, the allowance is not updated on `transferFrom`. This is semantically equivalent to an infinite approval. Requirements: - `spender` cannot be the zero address."
      },
      "balanceOf(address)": {
        "details": "See {IERC20-balanceOf}."
      },
      "decimals()": {
        "details": "Returns the number of decimals used to get its user representation. For example, if `decimals` equals `2`, a balance of `505` tokens should be displayed to a user as `5.05` (`505 / 10 ** 2`). Tokens usually opt for a value of 18, imitating the relationship between Ether and Wei. This is the value {ERC20} uses, unless this function is overridden; NOTE: This information is only used for _display_ purposes: it in no way affects any of the arithmetic of the contract, including {IERC20-balanceOf} and {IERC20-transfer}."
      },
      "decreaseAllowance(address,uint256)": {
        "details": "Atomically decreases the allowance granted to `spender` by the caller. This is an alternative to {approve} that can be used as a mitigation for problems described in {IERC20-approve}. Emits an {Approval} event indicating the updated allowance. Requirements: - `spender` cannot be the zero address. - `spender` must have allowance for the caller of at least `subtractedValue`."
      },
      "increaseAllowance(address,uint256)": {
        "details": "Atomically increases the allowance granted to `spender` by the caller. This is an alternative to {approve} that can be used as a mitigation for problems described in {IERC20-approve}. Emits an {Approval} event indicating the updated allowance. Requirements: - `spender` cannot be the zero address."
      },
      "name()": {
        "details": "Returns the name of the token."
      },
      "owner()": {
        "details": "Returns the address of the current owner."
      },
      "renounceOwnership()": {
        "details": "Leaves the contract without owner. It will not be possible to call `onlyOwner` functions anymore. Can only be called by the current owner. NOTE: Renouncing ownership will leave the contract without an owner, thereby removing any functionality that is only available to the owner."
      },
      "symbol()": {
        "details": "Returns the symbol of the token, usually a shorter version of the name."
      },
      "totalSupply()": {
        "details": "See {IERC20-totalSupply}."
      },
      "transfer(address,uint256)": {
        "details": "See {IERC20-transfer}. Requirements: - `to` cannot be the zero address. - the caller must have a balance of at least `amount`."
      },
      "transferFrom(address,address,uint256)": {
        "details": "See {IERC20-transferFrom}. Emits an {Approval} event indicating the updated allowance. This is not required by the EIP. See the note at the beginning of {ERC20}. NOTE: Does not update the allowance if the current allowance is the maximum `uint256`. Requirements: - `from` and `to` cannot be the zero address. - `from` must have a balance of at least `amount`. - the caller must have allowance for ``from``'s tokens of at least `amount`."
      },
      "transferOwnership(address)": {
        "details": "Transfers ownership of the contract to a new account (`newOwner`). Can only be called by the current owner."
      }
    },
    "version": 1
  },
  "userdoc": {
    "kind": "user",
    "methods": {},
    "version": 1
  }
}